{
  "contractName": "AppleContract",
  "abi": [
    {
      "constant": true,
      "inputs": [
        {
          "name": "",
          "type": "uint256"
        }
      ],
      "name": "apples",
      "outputs": [
        {
          "name": "weight",
          "type": "uint256"
        },
        {
          "name": "species",
          "type": "string"
        }
      ],
      "payable": false,
      "stateMutability": "view",
      "type": "function"
    },
    {
      "constant": false,
      "inputs": [
        {
          "name": "weight",
          "type": "uint256"
        },
        {
          "name": "species",
          "type": "string"
        }
      ],
      "name": "set",
      "outputs": [],
      "payable": false,
      "stateMutability": "nonpayable",
      "type": "function"
    },
    {
      "constant": true,
      "inputs": [],
      "name": "get",
      "outputs": [
        {
          "components": [
            {
              "name": "weight",
              "type": "uint256"
            },
            {
              "name": "species",
              "type": "string"
            }
          ],
          "name": "",
          "type": "tuple"
        }
      ],
      "payable": false,
      "stateMutability": "view",
      "type": "function"
    }
  ],
  "bytecode": "0x608060405234801561001057600080fd5b50610631806100206000396000f3006080604052600436106100565763ffffffff7c010000000000000000000000000000000000000000000000000000000060003504166364371977811461005b5780636d4ce63c1461007d5780638c45ab8a146100a8575b600080fd5b34801561006757600080fd5b5061007b610076366004610462565b6100d6565b005b34801561008957600080fd5b50610092610167565b60405161009f919061052d565b60405180910390f35b3480156100b457600080fd5b506100c86100c336600461043c565b61026c565b60405161009f92919061053e565b604080518082019091528281526020808201838152600080546001810180835591805284517f290decd9548b62a8d60345a988386fc84ba6bc95484008f6362f93160ef3e56360029092029182019081559251805192959461015f937f290decd9548b62a8d60345a988386fc84ba6bc95484008f6362f93160ef3e56490930192910190610322565b505050505050565b61016f6103a0565b6101776103a0565b60005b60005481101561026657600080548290811061019257fe5b906000526020600020906002020160408051908101604052908160008201548152602001600182018054600181600116156101000203166002900480601f01602080910402602001604051908101604052809291908181526020018280546001816001161561010002031660029004801561024e5780601f106102235761010080835404028352916020019161024e565b820191906000526020600020905b81548152906001019060200180831161023157829003601f168201915b5050505050815250509150808060010191505061017a565b50919050565b600080548290811061027a57fe5b60009182526020918290206002918202018054600180830180546040805193821615610100026000190190911695909504601f81018790048702830187019095528482529195509193919290918301828280156103185780601f106102ed57610100808354040283529160200191610318565b820191906000526020600020905b8154815290600101906020018083116102fb57829003601f168201915b5050505050905082565b828054600181600116156101000203166002900490600052602060002090601f016020900481019282601f1061036357805160ff1916838001178555610390565b82800160010185558215610390579182015b82811115610390578251825591602001919060010190610375565b5061039c9291506103b8565b5090565b60408051808201909152600081526060602082015290565b6103d291905b8082111561039c57600081556001016103be565b90565b6000601f820183136103e657600080fd5b81356103f96103f482610585565b61055e565b9150808252602083016020830185838301111561041557600080fd5b6104208382846105b1565b50505092915050565b600061043582356103d2565b9392505050565b60006020828403121561044e57600080fd5b600061045a8484610429565b949350505050565b6000806040838503121561047557600080fd5b60006104818585610429565b925050602083013567ffffffffffffffff81111561049e57600080fd5b6104aa858286016103d5565b9150509250929050565b60006104bf826105ad565b8084526104d38160208601602086016105bd565b6104dc816105ed565b9093016020019392505050565b805160009060408401906104fd858261051e565b506020830151848203602086015261051582826104b4565b95945050505050565b610527816103d2565b82525050565b6020808252810161043581846104e9565b6040810161054c828561051e565b818103602083015261045a81846104b4565b60405181810167ffffffffffffffff8111828210171561057d57600080fd5b604052919050565b600067ffffffffffffffff82111561059c57600080fd5b506020601f91909101601f19160190565b5190565b82818337506000910152565b60005b838110156105d85781810151838201526020016105c0565b838111156105e7576000848401525b50505050565b601f01601f1916905600a265627a7a723058207dfcfb1f712074e28f3b30beeeac8af261b111466a11e757b23e130f4ba999816c6578706572696d656e74616cf50037",
  "source": "pragma solidity >=0.4.0 <0.6.0;\npragma experimental ABIEncoderV2;\n\ncontract AppleContract {\n\n    Apple[] public apples;\n\n    struct Apple {\n        uint weight;\n        string species;\n    }\n\n    function set(uint weight, string species) public {\n        apples.push(Apple(weight, species));\n    }\n\n    function get() public view returns (Apple) {\n        Apple memory acc;\n        for (uint index = 0; index < apples.length; index++) {\n            acc = apples[index];\n        }\n        return acc;\n    }\n\n}",
  "sourcePath": "/Users/jbjoffre/Development/blockchain/codingdojo/contracts/AppleContract.sol",
  "compiler": {
    "name": "solc",
    "version": "0.4.24+commit.e67f0147.Emscripten.clang"
  },
  "schemaVersion": "2.0.1",
  "updatedAt": "2018-11-23T09:07:20.282Z"
}