{
  "contractName": "AppleFactory",
  "abi": [
    {
      "constant": false,
      "inputs": [
        {
          "name": "weight",
          "type": "uint256"
        },
        {
          "name": "species",
          "type": "string"
        }
      ],
      "name": "create",
      "outputs": [],
      "payable": false,
      "stateMutability": "nonpayable",
      "type": "function"
    }
  ],
  "bytecode": "0x608060405234801561001057600080fd5b50610749806100206000396000f3006080604052600436106100405763ffffffff7c01000000000000000000000000000000000000000000000000000000006000350416630118fa498114610045575b600080fd5b34801561005157600080fd5b5061006561006036600461017e565b610067565b005b60008282610073610107565b61007e929190610214565b604051809103906000f08015801561009a573d6000803e3d6000fd5b50600080546001810182559080527f290decd9548b62a8d60345a988386fc84ba6bc95484008f6362f93160ef3e56301805473ffffffffffffffffffffffffffffffffffffffff191673ffffffffffffffffffffffffffffffffffffffff92909216919091179055505050565b604051610437806102d983390190565b6000601f8201831361012857600080fd5b813561013b61013682610263565b61023c565b9150808252602083016020830185838301111561015757600080fd5b610162838284610292565b50505092915050565b6000610177823561028f565b9392505050565b6000806040838503121561019157600080fd5b600061019d858561016b565b925050602083013567ffffffffffffffff8111156101ba57600080fd5b6101c685828601610117565b9150509250929050565b60006101db8261028b565b8084526101ef81602086016020860161029e565b6101f8816102ce565b9093016020019392505050565b61020e8161028f565b82525050565b604081016102228285610205565b818103602083015261023481846101d0565b949350505050565b60405181810167ffffffffffffffff8111828210171561025b57600080fd5b604052919050565b600067ffffffffffffffff82111561027a57600080fd5b506020601f91909101601f19160190565b5190565b90565b82818337506000910152565b60005b838110156102b95781810151838201526020016102a1565b838111156102c8576000848401525b50505050565b601f01601f1916905600608060405234801561001057600080fd5b506040516104373803806104378339810180604052610032919081019061016c565b60408051808201909152828152602080820183905260008481558351909161005f9160019186019061006a565b50905050505061023a565b828054600181600116156101000203166002900490600052602060002090601f016020900481019282601f106100ab57805160ff19168380011785556100d8565b828001600101855582156100d8579182015b828111156100d85782518255916020019190600101906100bd565b506100e49291506100e8565b5090565b61010291905b808211156100e457600081556001016100ee565b90565b6000601f8201831361011657600080fd5b8151610129610124826101e3565b6101bd565b9150808252602083016020830185838301111561014557600080fd5b61015083828461020a565b50505092915050565b60006101658251610102565b9392505050565b6000806040838503121561017f57600080fd5b600061018b8585610159565b92505060208301516001604060020a038111156101a757600080fd5b6101b385828601610105565b9150509250929050565b6040518181016001604060020a03811182821017156101db57600080fd5b604052919050565b60006001604060020a038211156101f957600080fd5b506020601f91909101601f19160190565b60005b8381101561022557818101518382015260200161020d565b83811115610234576000848401525b50505050565b6101ee806102496000396000f3006080604052600436106100405763ffffffff7c01000000000000000000000000000000000000000000000000000000006000350416635e88bc148114610045575b600080fd5b34801561005157600080fd5b5061005a610071565b60405161006892919061014b565b60405180910390f35b6000805460018054604080516020600284861615610100026000190190941693909304601f810184900484028201840190925281815293949392918301828280156100fd5780601f106100d2576101008083540402835291602001916100fd565b820191906000526020600020905b8154815290600101906020018083116100e057829003601f168201915b5050505050905082565b600061011282610173565b80845261012681602086016020860161017a565b61012f816101aa565b9093016020019392505050565b61014581610177565b82525050565b60408101610159828561013c565b818103602083015261016b8184610107565b949350505050565b5190565b90565b60005b8381101561019557818101518382015260200161017d565b838111156101a4576000848401525b50505050565b601f01601f1916905600a265627a7a72305820e5c196a4b6f72c90edd66e2ae07c7a0c2ed77e2138da0aac37be4e7bc831c3d96c6578706572696d656e74616cf50037a265627a7a723058209862a9a778f9dfe00f00b40fa145b45a646938abcb929e1732d766eff10f22db6c6578706572696d656e74616cf50037",
  "source": "pragma solidity ^0.4.0;\npragma experimental ABIEncoderV2;\n\ncontract AppleFactory {\n        \n    address[] addresses;\n\n    function create(uint weight, string species) {\n        address newContract = new AppleContract(weight, species);\n        addresses.push(newContract);\n    }\n\n}\n\ncontract AppleContract {\n\n    Apple public apple;\n\n    struct Apple {\n        uint weight;\n        string species;\n    }\n\n    function AppleContract(uint weight, string species) {\n        apple = Apple(weight, species);\n    }\n\n}",
  "sourcePath": "/Users/jbjoffre/Development/blockchain/codingdojo/contracts/AppleContract.sol",
  "compiler": {
    "name": "solc",
    "version": "0.4.24+commit.e67f0147.Emscripten.clang"
  },
  "schemaVersion": "2.0.1",
  "updatedAt": "2018-11-22T21:47:01.332Z"
}